{
    "_format": "hh-sol-artifact-1",
    "contractName": "DRE",
    "sourceName": "contracts/DRE.sol",
    "abi": [
        {
            "inputs": [],
            "stateMutability": "nonpayable",
            "type": "constructor"
        },
        {
            "inputs": [
                {
                    "internalType": "address",
                    "name": "sender",
                    "type": "address"
                },
                {
                    "internalType": "uint256",
                    "name": "balance",
                    "type": "uint256"
                },
                {
                    "internalType": "uint256",
                    "name": "needed",
                    "type": "uint256"
                },
                {
                    "internalType": "uint256",
                    "name": "tokenId",
                    "type": "uint256"
                }
            ],
            "name": "ERC1155InsufficientBalance",
            "type": "error"
        },
        {
            "inputs": [
                {
                    "internalType": "address",
                    "name": "approver",
                    "type": "address"
                }
            ],
            "name": "ERC1155InvalidApprover",
            "type": "error"
        },
        {
            "inputs": [
                {
                    "internalType": "uint256",
                    "name": "idsLength",
                    "type": "uint256"
                },
                {
                    "internalType": "uint256",
                    "name": "valuesLength",
                    "type": "uint256"
                }
            ],
            "name": "ERC1155InvalidArrayLength",
            "type": "error"
        },
        {
            "inputs": [
                {
                    "internalType": "address",
                    "name": "operator",
                    "type": "address"
                }
            ],
            "name": "ERC1155InvalidOperator",
            "type": "error"
        },
        {
            "inputs": [
                {
                    "internalType": "address",
                    "name": "receiver",
                    "type": "address"
                }
            ],
            "name": "ERC1155InvalidReceiver",
            "type": "error"
        },
        {
            "inputs": [
                {
                    "internalType": "address",
                    "name": "sender",
                    "type": "address"
                }
            ],
            "name": "ERC1155InvalidSender",
            "type": "error"
        },
        {
            "inputs": [
                {
                    "internalType": "address",
                    "name": "operator",
                    "type": "address"
                },
                {
                    "internalType": "address",
                    "name": "owner",
                    "type": "address"
                }
            ],
            "name": "ERC1155MissingApprovalForAll",
            "type": "error"
        },
        {
            "inputs": [
                {
                    "internalType": "address",
                    "name": "owner",
                    "type": "address"
                }
            ],
            "name": "OwnableInvalidOwner",
            "type": "error"
        },
        {
            "inputs": [
                {
                    "internalType": "address",
                    "name": "account",
                    "type": "address"
                }
            ],
            "name": "OwnableUnauthorizedAccount",
            "type": "error"
        },
        {
            "anonymous": false,
            "inputs": [
                {
                    "indexed": true,
                    "internalType": "address",
                    "name": "account",
                    "type": "address"
                },
                {
                    "indexed": true,
                    "internalType": "address",
                    "name": "operator",
                    "type": "address"
                },
                {
                    "indexed": false,
                    "internalType": "bool",
                    "name": "approved",
                    "type": "bool"
                }
            ],
            "name": "ApprovalForAll",
            "type": "event"
        },
        {
            "anonymous": false,
            "inputs": [
                {
                    "indexed": true,
                    "internalType": "address",
                    "name": "previousOwner",
                    "type": "address"
                },
                {
                    "indexed": true,
                    "internalType": "address",
                    "name": "newOwner",
                    "type": "address"
                }
            ],
            "name": "OwnershipTransferred",
            "type": "event"
        },
        {
            "anonymous": false,
            "inputs": [
                {
                    "indexed": true,
                    "internalType": "address",
                    "name": "operator",
                    "type": "address"
                },
                {
                    "indexed": true,
                    "internalType": "address",
                    "name": "from",
                    "type": "address"
                },
                {
                    "indexed": true,
                    "internalType": "address",
                    "name": "to",
                    "type": "address"
                },
                {
                    "indexed": false,
                    "internalType": "uint256[]",
                    "name": "ids",
                    "type": "uint256[]"
                },
                {
                    "indexed": false,
                    "internalType": "uint256[]",
                    "name": "values",
                    "type": "uint256[]"
                }
            ],
            "name": "TransferBatch",
            "type": "event"
        },
        {
            "anonymous": false,
            "inputs": [
                {
                    "indexed": true,
                    "internalType": "address",
                    "name": "operator",
                    "type": "address"
                },
                {
                    "indexed": true,
                    "internalType": "address",
                    "name": "from",
                    "type": "address"
                },
                {
                    "indexed": true,
                    "internalType": "address",
                    "name": "to",
                    "type": "address"
                },
                {
                    "indexed": false,
                    "internalType": "uint256",
                    "name": "id",
                    "type": "uint256"
                },
                {
                    "indexed": false,
                    "internalType": "uint256",
                    "name": "value",
                    "type": "uint256"
                }
            ],
            "name": "TransferSingle",
            "type": "event"
        },
        {
            "anonymous": false,
            "inputs": [
                {
                    "indexed": false,
                    "internalType": "string",
                    "name": "value",
                    "type": "string"
                },
                {
                    "indexed": true,
                    "internalType": "uint256",
                    "name": "id",
                    "type": "uint256"
                }
            ],
            "name": "URI",
            "type": "event"
        },
        {
            "inputs": [
                {
                    "internalType": "address",
                    "name": "account",
                    "type": "address"
                },
                {
                    "internalType": "uint256",
                    "name": "id",
                    "type": "uint256"
                }
            ],
            "name": "balanceOf",
            "outputs": [
                {
                    "internalType": "uint256",
                    "name": "",
                    "type": "uint256"
                }
            ],
            "stateMutability": "view",
            "type": "function"
        },
        {
            "inputs": [
                {
                    "internalType": "address[]",
                    "name": "accounts",
                    "type": "address[]"
                },
                {
                    "internalType": "uint256[]",
                    "name": "ids",
                    "type": "uint256[]"
                }
            ],
            "name": "balanceOfBatch",
            "outputs": [
                {
                    "internalType": "uint256[]",
                    "name": "",
                    "type": "uint256[]"
                }
            ],
            "stateMutability": "view",
            "type": "function"
        },
        {
            "inputs": [
                {
                    "internalType": "enum DRE.CollectionType",
                    "name": "",
                    "type": "uint8"
                }
            ],
            "name": "collections",
            "outputs": [
                {
                    "internalType": "string",
                    "name": "baseURI",
                    "type": "string"
                },
                {
                    "internalType": "bool",
                    "name": "revealed",
                    "type": "bool"
                }
            ],
            "stateMutability": "view",
            "type": "function"
        },
        {
            "inputs": [
                {
                    "internalType": "address",
                    "name": "account",
                    "type": "address"
                },
                {
                    "internalType": "address",
                    "name": "operator",
                    "type": "address"
                }
            ],
            "name": "isApprovedForAll",
            "outputs": [
                {
                    "internalType": "bool",
                    "name": "",
                    "type": "bool"
                }
            ],
            "stateMutability": "view",
            "type": "function"
        },
        {
            "inputs": [
                {
                    "internalType": "address",
                    "name": "to",
                    "type": "address"
                },
                {
                    "internalType": "uint256",
                    "name": "amount",
                    "type": "uint256"
                },
                {
                    "internalType": "enum DRE.CollectionType",
                    "name": "_type",
                    "type": "uint8"
                }
            ],
            "name": "mint",
            "outputs": [],
            "stateMutability": "nonpayable",
            "type": "function"
        },
        {
            "inputs": [],
            "name": "name",
            "outputs": [
                {
                    "internalType": "string",
                    "name": "",
                    "type": "string"
                }
            ],
            "stateMutability": "view",
            "type": "function"
        },
        {
            "inputs": [],
            "name": "owner",
            "outputs": [
                {
                    "internalType": "address",
                    "name": "",
                    "type": "address"
                }
            ],
            "stateMutability": "view",
            "type": "function"
        },
        {
            "inputs": [],
            "name": "renounceOwnership",
            "outputs": [],
            "stateMutability": "nonpayable",
            "type": "function"
        },
        {
            "inputs": [
                {
                    "internalType": "enum DRE.CollectionType",
                    "name": "_type",
                    "type": "uint8"
                }
            ],
            "name": "reveal",
            "outputs": [],
            "stateMutability": "nonpayable",
            "type": "function"
        },
        {
            "inputs": [
                {
                    "internalType": "address",
                    "name": "from",
                    "type": "address"
                },
                {
                    "internalType": "address",
                    "name": "to",
                    "type": "address"
                },
                {
                    "internalType": "uint256[]",
                    "name": "ids",
                    "type": "uint256[]"
                },
                {
                    "internalType": "uint256[]",
                    "name": "values",
                    "type": "uint256[]"
                },
                {
                    "internalType": "bytes",
                    "name": "data",
                    "type": "bytes"
                }
            ],
            "name": "safeBatchTransferFrom",
            "outputs": [],
            "stateMutability": "nonpayable",
            "type": "function"
        },
        {
            "inputs": [
                {
                    "internalType": "address",
                    "name": "from",
                    "type": "address"
                },
                {
                    "internalType": "address",
                    "name": "to",
                    "type": "address"
                },
                {
                    "internalType": "uint256",
                    "name": "id",
                    "type": "uint256"
                },
                {
                    "internalType": "uint256",
                    "name": "value",
                    "type": "uint256"
                },
                {
                    "internalType": "bytes",
                    "name": "data",
                    "type": "bytes"
                }
            ],
            "name": "safeTransferFrom",
            "outputs": [],
            "stateMutability": "nonpayable",
            "type": "function"
        },
        {
            "inputs": [
                {
                    "internalType": "address",
                    "name": "operator",
                    "type": "address"
                },
                {
                    "internalType": "bool",
                    "name": "approved",
                    "type": "bool"
                }
            ],
            "name": "setApprovalForAll",
            "outputs": [],
            "stateMutability": "nonpayable",
            "type": "function"
        },
        {
            "inputs": [
                {
                    "internalType": "enum DRE.CollectionType",
                    "name": "_type",
                    "type": "uint8"
                },
                {
                    "internalType": "string",
                    "name": "_uri",
                    "type": "string"
                }
            ],
            "name": "setBaseURI",
            "outputs": [],
            "stateMutability": "nonpayable",
            "type": "function"
        },
        {
            "inputs": [
                {
                    "internalType": "bytes4",
                    "name": "interfaceId",
                    "type": "bytes4"
                }
            ],
            "name": "supportsInterface",
            "outputs": [
                {
                    "internalType": "bool",
                    "name": "",
                    "type": "bool"
                }
            ],
            "stateMutability": "view",
            "type": "function"
        },
        {
            "inputs": [],
            "name": "symbol",
            "outputs": [
                {
                    "internalType": "string",
                    "name": "",
                    "type": "string"
                }
            ],
            "stateMutability": "view",
            "type": "function"
        },
        {
            "inputs": [
                {
                    "internalType": "uint256",
                    "name": "",
                    "type": "uint256"
                }
            ],
            "name": "tokenCollection",
            "outputs": [
                {
                    "internalType": "enum DRE.CollectionType",
                    "name": "",
                    "type": "uint8"
                }
            ],
            "stateMutability": "view",
            "type": "function"
        },
        {
            "inputs": [],
            "name": "tokenIdCounter",
            "outputs": [
                {
                    "internalType": "uint256",
                    "name": "",
                    "type": "uint256"
                }
            ],
            "stateMutability": "view",
            "type": "function"
        },
        {
            "inputs": [
                {
                    "internalType": "address",
                    "name": "newOwner",
                    "type": "address"
                }
            ],
            "name": "transferOwnership",
            "outputs": [],
            "stateMutability": "nonpayable",
            "type": "function"
        },
        {
            "inputs": [
                {
                    "internalType": "uint256",
                    "name": "tokenId",
                    "type": "uint256"
                }
            ],
            "name": "uri",
            "outputs": [
                {
                    "internalType": "string",
                    "name": "",
                    "type": "string"
                }
            ],
            "stateMutability": "view",
            "type": "function"
        }
    ],
    "bytecode": "0x60806040526040518060400160405280601081526020017f4a68616e64726520456c2047686f73740000000000000000000000000000000081525060049081610048919061059a565b506040518060400160405280600381526020017f44524500000000000000000000000000000000000000000000000000000000008152506005908161008d919061059a565b5034801561009a57600080fd5b5033604051806020016040528060008152506100bb8161027160201b60201c565b50600073ffffffffffffffffffffffffffffffffffffffff168173ffffffffffffffffffffffffffffffffffffffff160361012e5760006040517f1e4fbdf700000000000000000000000000000000000000000000000000000000815260040161012591906106ad565b60405180910390fd5b61013d8161028460201b60201c565b506040518060400160405280604051806020016040528060008152508152602001600015158152506006600080600181111561017c5761017b6106c8565b5b600181111561018e5761018d6106c8565b5b815260200190815260200160002060008201518160000190816101b1919061059a565b5060208201518160010160006101000a81548160ff02191690831515021790555090505060405180604001604052806040518060200160405280600081525081526020016000151581525060066000600180811115610213576102126106c8565b5b6001811115610225576102246106c8565b5b81526020019081526020016000206000820151816000019081610248919061059a565b5060208201518160010160006101000a81548160ff0219169083151502179055509050506106f7565b8060029081610280919061059a565b5050565b6000600360009054906101000a900473ffffffffffffffffffffffffffffffffffffffff16905081600360006101000a81548173ffffffffffffffffffffffffffffffffffffffff021916908373ffffffffffffffffffffffffffffffffffffffff1602179055508173ffffffffffffffffffffffffffffffffffffffff168173ffffffffffffffffffffffffffffffffffffffff167f8be0079c531659141344cd1fd0a4f28419497f9722a3daafe3b4186f6b6457e060405160405180910390a35050565b600081519050919050565b7f4e487b7100000000000000000000000000000000000000000000000000000000600052604160045260246000fd5b7f4e487b7100000000000000000000000000000000000000000000000000000000600052602260045260246000fd5b600060028204905060018216806103cb57607f821691505b6020821081036103de576103dd610384565b5b50919050565b60008190508160005260206000209050919050565b60006020601f8301049050919050565b600082821b905092915050565b6000600883026104467fffffffffffffffffffffffffffffffffffffffffffffffffffffffffffffffff82610409565b6104508683610409565b95508019841693508086168417925050509392505050565b6000819050919050565b6000819050919050565b600061049761049261048d84610468565b610472565b610468565b9050919050565b6000819050919050565b6104b18361047c565b6104c56104bd8261049e565b848454610416565b825550505050565b600090565b6104da6104cd565b6104e58184846104a8565b505050565b5b81811015610509576104fe6000826104d2565b6001810190506104eb565b5050565b601f82111561054e5761051f816103e4565b610528846103f9565b81016020851015610537578190505b61054b610543856103f9565b8301826104ea565b50505b505050565b600082821c905092915050565b600061057160001984600802610553565b1980831691505092915050565b600061058a8383610560565b9150826002028217905092915050565b6105a38261034a565b67ffffffffffffffff8111156105bc576105bb610355565b5b6105c682546103b3565b6105d182828561050d565b600060209050601f83116001811461060457600084156105f2578287015190505b6105fc858261057e565b865550610664565b601f198416610612866103e4565b60005b8281101561063a57848901518255600182019150602085019450602081019050610615565b868310156106575784890151610653601f891682610560565b8355505b6001600288020188555050505b505050505050565b600073ffffffffffffffffffffffffffffffffffffffff82169050919050565b60006106978261066c565b9050919050565b6106a78161068c565b82525050565b60006020820190506106c2600083018461069e565b92915050565b7f4e487b7100000000000000000000000000000000000000000000000000000000600052602160045260246000fd5b6131ec806107066000396000f3fe608060405234801561001057600080fd5b50600436106101205760003560e01c80638da5cb5b116100ad578063e58655df11610071578063e58655df14610307578063e985e9c514610338578063f242432a14610368578063f2fde38b14610384578063f909d6fe146103a057610120565b80638da5cb5b1461027557806395d89b411461029357806398bdf6f5146102b1578063a22cb465146102cf578063bdc9cacd146102eb57610120565b80632dd883e8116100f45780632dd883e8146101d35780632eb2c2d6146102035780634e1273f41461021f5780636112e8ac1461024f578063715018a61461026b57610120565b8062fdd58e1461012557806301ffc9a71461015557806306fdde03146101855780630e89341c146101a3575b600080fd5b61013f600480360381019061013a9190611ec2565b6103bc565b60405161014c9190611f11565b60405180910390f35b61016f600480360381019061016a9190611f84565b610416565b60405161017c9190611fcc565b60405180910390f35b61018d6104f8565b60405161019a9190612077565b60405180910390f35b6101bd60048036038101906101b89190612099565b610586565b6040516101ca9190612077565b60405180910390f35b6101ed60048036038101906101e89190612099565b610756565b6040516101fa919061213d565b60405180910390f35b61021d60048036038101906102189190612355565b610776565b005b610239600480360381019061023491906124e7565b61081e565b604051610246919061261d565b60405180910390f35b61026960048036038101906102649190612664565b610927565b005b6102736109fb565b005b61027d610a0f565b60405161028a91906126c6565b60405180910390f35b61029b610a39565b6040516102a89190612077565b60405180910390f35b6102b9610ac7565b6040516102c69190611f11565b60405180910390f35b6102e960048036038101906102e4919061270d565b610ad1565b005b610305600480360381019061030091906127ee565b610ae7565b005b610321600480360381019061031c919061284a565b610b3b565b60405161032f929190612877565b60405180910390f35b610352600480360381019061034d91906128a7565b610bf4565b60405161035f9190611fcc565b60405180910390f35b610382600480360381019061037d91906128e7565b610c88565b005b61039e6004803603810190610399919061297e565b610d30565b005b6103ba60048036038101906103b5919061284a565b610db6565b005b600080600083815260200190815260200160002060008473ffffffffffffffffffffffffffffffffffffffff1673ffffffffffffffffffffffffffffffffffffffff16815260200190815260200160002054905092915050565b60007fd9b67a26000000000000000000000000000000000000000000000000000000007bffffffffffffffffffffffffffffffffffffffffffffffffffffffff1916827bffffffffffffffffffffffffffffffffffffffffffffffffffffffff191614806104e157507f0e89341c000000000000000000000000000000000000000000000000000000007bffffffffffffffffffffffffffffffffffffffffffffffffffffffff1916827bffffffffffffffffffffffffffffffffffffffffffffffffffffffff1916145b806104f157506104f082610e14565b5b9050919050565b60048054610505906129da565b80601f0160208091040260200160405190810160405280929190818152602001828054610531906129da565b801561057e5780601f106105535761010080835404028352916020019161057e565b820191906000526020600020905b81548152906001019060200180831161056157829003601f168201915b505050505081565b606060006007600084815260200190815260200160002060009054906101000a900460ff1690506000600660008360018111156105c6576105c56120c6565b5b60018111156105d8576105d76120c6565b5b8152602001908152602001600020604051806040016040529081600082018054610601906129da565b80601f016020809104026020016040519081016040528092919081815260200182805461062d906129da565b801561067a5780601f1061064f5761010080835404028352916020019161067a565b820191906000526020600020905b81548152906001019060200180831161065d57829003601f168201915b505050505081526020016001820160009054906101000a900460ff16151515158152505090506000816000015151116106e8576040517f08c379a00000000000000000000000000000000000000000000000000000000081526004016106df90612a57565b60405180910390fd5b806020015161071e5780600001516040516020016107069190612aff565b60405160208183030381529060405292505050610751565b806000015161072c85610e7e565b60405160200161073d929190612b6d565b604051602081830303815290604052925050505b919050565b60076020528060005260406000206000915054906101000a900460ff1681565b6000610780610f4c565b90508073ffffffffffffffffffffffffffffffffffffffff168673ffffffffffffffffffffffffffffffffffffffff16141580156107c557506107c38682610bf4565b155b156108095780866040517fe237d922000000000000000000000000000000000000000000000000000000008152600401610800929190612b9c565b60405180910390fd5b6108168686868686610f54565b505050505050565b6060815183511461086a57815183516040517f5b059991000000000000000000000000000000000000000000000000000000008152600401610861929190612bc5565b60405180910390fd5b6000835167ffffffffffffffff8111156108875761088661215d565b5b6040519080825280602002602001820160405280156108b55781602001602082028036833780820191505090505b50905060005b845181101561091c576108f26108da828761104c90919063ffffffff16565b6108ed838761106090919063ffffffff16565b6103bc565b82828151811061090557610904612bee565b5b6020026020010181815250508060010190506108bb565b508091505092915050565b61092f611074565b6002816001811115610944576109436120c6565b5b10610984576040517f08c379a000000000000000000000000000000000000000000000000000000000815260040161097b90612c69565b60405180910390fd5b60006008600081548092919061099990612cb8565b919050559050816007600083815260200190815260200160002060006101000a81548160ff021916908360018111156109d5576109d46120c6565b5b02179055506109f5848285604051806020016040528060008152506110fb565b50505050565b610a03611074565b610a0d6000611194565b565b6000600360009054906101000a900473ffffffffffffffffffffffffffffffffffffffff16905090565b60058054610a46906129da565b80601f0160208091040260200160405190810160405280929190818152602001828054610a72906129da565b8015610abf5780601f10610a9457610100808354040283529160200191610abf565b820191906000526020600020905b815481529060010190602001808311610aa257829003601f168201915b505050505081565b6000600854905090565b610ae3610adc610f4c565b838361125a565b5050565b610aef611074565b8060066000846001811115610b0757610b066120c6565b5b6001811115610b1957610b186120c6565b5b81526020019081526020016000206000019081610b369190612eac565b505050565b6006602052806000526040600020600091509050806000018054610b5e906129da565b80601f0160208091040260200160405190810160405280929190818152602001828054610b8a906129da565b8015610bd75780601f10610bac57610100808354040283529160200191610bd7565b820191906000526020600020905b815481529060010190602001808311610bba57829003601f168201915b5050505050908060010160009054906101000a900460ff16905082565b6000600160008473ffffffffffffffffffffffffffffffffffffffff1673ffffffffffffffffffffffffffffffffffffffff16815260200190815260200160002060008373ffffffffffffffffffffffffffffffffffffffff1673ffffffffffffffffffffffffffffffffffffffff16815260200190815260200160002060009054906101000a900460ff16905092915050565b6000610c92610f4c565b90508073ffffffffffffffffffffffffffffffffffffffff168673ffffffffffffffffffffffffffffffffffffffff1614158015610cd75750610cd58682610bf4565b155b15610d1b5780866040517fe237d922000000000000000000000000000000000000000000000000000000008152600401610d12929190612b9c565b60405180910390fd5b610d2886868686866113ca565b505050505050565b610d38611074565b600073ffffffffffffffffffffffffffffffffffffffff168173ffffffffffffffffffffffffffffffffffffffff1603610daa5760006040517f1e4fbdf7000000000000000000000000000000000000000000000000000000008152600401610da191906126c6565b60405180910390fd5b610db381611194565b50565b610dbe611074565b600160066000836001811115610dd757610dd66120c6565b5b6001811115610de957610de86120c6565b5b815260200190815260200160002060010160006101000a81548160ff02191690831515021790555050565b60007f01ffc9a7000000000000000000000000000000000000000000000000000000007bffffffffffffffffffffffffffffffffffffffffffffffffffffffff1916827bffffffffffffffffffffffffffffffffffffffffffffffffffffffff1916149050919050565b606060006001610e8d846114d5565b01905060008167ffffffffffffffff811115610eac57610eab61215d565b5b6040519080825280601f01601f191660200182016040528015610ede5781602001600182028036833780820191505090505b509050600082602001820190505b600115610f41578080600190039150507f3031323334353637383961626364656600000000000000000000000000000000600a86061a8153600a8581610f3557610f34612f7e565b5b04945060008503610eec575b819350505050919050565b600033905090565b600073ffffffffffffffffffffffffffffffffffffffff168473ffffffffffffffffffffffffffffffffffffffff1603610fc65760006040517f57f447ce000000000000000000000000000000000000000000000000000000008152600401610fbd91906126c6565b60405180910390fd5b600073ffffffffffffffffffffffffffffffffffffffff168573ffffffffffffffffffffffffffffffffffffffff16036110385760006040517f01a8351400000000000000000000000000000000000000000000000000000000815260040161102f91906126c6565b60405180910390fd5b6110458585858585611628565b5050505050565b600060208202602084010151905092915050565b600060208202602084010151905092915050565b61107c610f4c565b73ffffffffffffffffffffffffffffffffffffffff1661109a610a0f565b73ffffffffffffffffffffffffffffffffffffffff16146110f9576110bd610f4c565b6040517f118cdaa70000000000000000000000000000000000000000000000000000000081526004016110f091906126c6565b60405180910390fd5b565b600073ffffffffffffffffffffffffffffffffffffffff168473ffffffffffffffffffffffffffffffffffffffff160361116d5760006040517f57f447ce00000000000000000000000000000000000000000000000000000000815260040161116491906126c6565b60405180910390fd5b60008061117a85856116da565b9150915061118c600087848487611628565b505050505050565b6000600360009054906101000a900473ffffffffffffffffffffffffffffffffffffffff16905081600360006101000a81548173ffffffffffffffffffffffffffffffffffffffff021916908373ffffffffffffffffffffffffffffffffffffffff1602179055508173ffffffffffffffffffffffffffffffffffffffff168173ffffffffffffffffffffffffffffffffffffffff167f8be0079c531659141344cd1fd0a4f28419497f9722a3daafe3b4186f6b6457e060405160405180910390a35050565b600073ffffffffffffffffffffffffffffffffffffffff168273ffffffffffffffffffffffffffffffffffffffff16036112cc5760006040517fced3e1000000000000000000000000000000000000000000000000000000000081526004016112c391906126c6565b60405180910390fd5b80600160008573ffffffffffffffffffffffffffffffffffffffff1673ffffffffffffffffffffffffffffffffffffffff16815260200190815260200160002060008473ffffffffffffffffffffffffffffffffffffffff1673ffffffffffffffffffffffffffffffffffffffff16815260200190815260200160002060006101000a81548160ff0219169083151502179055508173ffffffffffffffffffffffffffffffffffffffff168373ffffffffffffffffffffffffffffffffffffffff167f17307eab39ab6107e8899845ad3d59bd9653f200f220920489ca2b5937696c31836040516113bd9190611fcc565b60405180910390a3505050565b600073ffffffffffffffffffffffffffffffffffffffff168473ffffffffffffffffffffffffffffffffffffffff160361143c5760006040517f57f447ce00000000000000000000000000000000000000000000000000000000815260040161143391906126c6565b60405180910390fd5b600073ffffffffffffffffffffffffffffffffffffffff168573ffffffffffffffffffffffffffffffffffffffff16036114ae5760006040517f01a835140000000000000000000000000000000000000000000000000000000081526004016114a591906126c6565b60405180910390fd5b6000806114bb85856116da565b915091506114cc8787848487611628565b50505050505050565b600080600090507a184f03e93ff9f4daa797ed6e38ed64bf6a1f0100000000000000008310611533577a184f03e93ff9f4daa797ed6e38ed64bf6a1f010000000000000000838161152957611528612f7e565b5b0492506040810190505b6d04ee2d6d415b85acef81000000008310611570576d04ee2d6d415b85acef8100000000838161156657611565612f7e565b5b0492506020810190505b662386f26fc10000831061159f57662386f26fc10000838161159557611594612f7e565b5b0492506010810190505b6305f5e10083106115c8576305f5e10083816115be576115bd612f7e565b5b0492506008810190505b61271083106115ed5761271083816115e3576115e2612f7e565b5b0492506004810190505b60648310611610576064838161160657611605612f7e565b5b0492506002810190505b600a831061161f576001810190505b80915050919050565b6116348585858561170a565b600073ffffffffffffffffffffffffffffffffffffffff168473ffffffffffffffffffffffffffffffffffffffff16146116d3576000611672610f4c565b905060018451036116c257600061169360008661106090919063ffffffff16565b905060006116ab60008661106090919063ffffffff16565b90506116bb838989858589611ab2565b50506116d1565b6116d0818787878787611c66565b5b505b5050505050565b60608060405191506001825283602083015260408201905060018152826020820152604081016040529250929050565b805182511461175457815181516040517f5b05999100000000000000000000000000000000000000000000000000000000815260040161174b929190612bc5565b60405180910390fd5b600061175e610f4c565b905060005b835181101561196d576000611781828661106090919063ffffffff16565b90506000611798838661106090919063ffffffff16565b9050600073ffffffffffffffffffffffffffffffffffffffff168873ffffffffffffffffffffffffffffffffffffffff16146118c557600080600084815260200190815260200160002060008a73ffffffffffffffffffffffffffffffffffffffff1673ffffffffffffffffffffffffffffffffffffffff1681526020019081526020016000205490508181101561186d57888183856040517f03dee4c50000000000000000000000000000000000000000000000000000000081526004016118649493929190612fad565b60405180910390fd5b81810360008085815260200190815260200160002060008b73ffffffffffffffffffffffffffffffffffffffff1673ffffffffffffffffffffffffffffffffffffffff16815260200190815260200160002081905550505b600073ffffffffffffffffffffffffffffffffffffffff168773ffffffffffffffffffffffffffffffffffffffff1614611960578060008084815260200190815260200160002060008973ffffffffffffffffffffffffffffffffffffffff1673ffffffffffffffffffffffffffffffffffffffff16815260200190815260200160002060008282546119589190612ff2565b925050819055505b5050806001019050611763565b506001835103611a2c57600061198d60008561106090919063ffffffff16565b905060006119a560008561106090919063ffffffff16565b90508573ffffffffffffffffffffffffffffffffffffffff168773ffffffffffffffffffffffffffffffffffffffff168473ffffffffffffffffffffffffffffffffffffffff167fc3d58168c5ae7397731d063d5bbf3d657854427343f4c083240f7aacaa2d0f628585604051611a1d929190612bc5565b60405180910390a45050611aab565b8373ffffffffffffffffffffffffffffffffffffffff168573ffffffffffffffffffffffffffffffffffffffff168273ffffffffffffffffffffffffffffffffffffffff167f4a39dc06d4c0dbc64b70af90fd698a233a518aa5d07e595d983b8c0526c8f7fb8686604051611aa2929190613026565b60405180910390a45b5050505050565b60008473ffffffffffffffffffffffffffffffffffffffff163b1115611c5e578373ffffffffffffffffffffffffffffffffffffffff1663f23a6e6187878686866040518663ffffffff1660e01b8152600401611b139594939291906130b2565b6020604051808303816000875af1925050508015611b4f57506040513d601f19601f82011682018060405250810190611b4c9190613121565b60015b611bd3573d8060008114611b7f576040519150601f19603f3d011682016040523d82523d6000602084013e611b84565b606091505b506000815103611bcb57846040517f57f447ce000000000000000000000000000000000000000000000000000000008152600401611bc291906126c6565b60405180910390fd5b805181602001fd5b63f23a6e6160e01b7bffffffffffffffffffffffffffffffffffffffffffffffffffffffff1916817bffffffffffffffffffffffffffffffffffffffffffffffffffffffff191614611c5c57846040517f57f447ce000000000000000000000000000000000000000000000000000000008152600401611c5391906126c6565b60405180910390fd5b505b505050505050565b60008473ffffffffffffffffffffffffffffffffffffffff163b1115611e12578373ffffffffffffffffffffffffffffffffffffffff1663bc197c8187878686866040518663ffffffff1660e01b8152600401611cc795949392919061314e565b6020604051808303816000875af1925050508015611d0357506040513d601f19601f82011682018060405250810190611d009190613121565b60015b611d87573d8060008114611d33576040519150601f19603f3d011682016040523d82523d6000602084013e611d38565b606091505b506000815103611d7f57846040517f57f447ce000000000000000000000000000000000000000000000000000000008152600401611d7691906126c6565b60405180910390fd5b805181602001fd5b63bc197c8160e01b7bffffffffffffffffffffffffffffffffffffffffffffffffffffffff1916817bffffffffffffffffffffffffffffffffffffffffffffffffffffffff191614611e1057846040517f57f447ce000000000000000000000000000000000000000000000000000000008152600401611e0791906126c6565b60405180910390fd5b505b505050505050565b6000604051905090565b600080fd5b600080fd5b600073ffffffffffffffffffffffffffffffffffffffff82169050919050565b6000611e5982611e2e565b9050919050565b611e6981611e4e565b8114611e7457600080fd5b50565b600081359050611e8681611e60565b92915050565b6000819050919050565b611e9f81611e8c565b8114611eaa57600080fd5b50565b600081359050611ebc81611e96565b92915050565b60008060408385031215611ed957611ed8611e24565b5b6000611ee785828601611e77565b9250506020611ef885828601611ead565b9150509250929050565b611f0b81611e8c565b82525050565b6000602082019050611f266000830184611f02565b92915050565b60007fffffffff0000000000000000000000000000000000000000000000000000000082169050919050565b611f6181611f2c565b8114611f6c57600080fd5b50565b600081359050611f7e81611f58565b92915050565b600060208284031215611f9a57611f99611e24565b5b6000611fa884828501611f6f565b91505092915050565b60008115159050919050565b611fc681611fb1565b82525050565b6000602082019050611fe16000830184611fbd565b92915050565b600081519050919050565b600082825260208201905092915050565b60005b83811015612021578082015181840152602081019050612006565b60008484015250505050565b6000601f19601f8301169050919050565b600061204982611fe7565b6120538185611ff2565b9350612063818560208601612003565b61206c8161202d565b840191505092915050565b60006020820190508181036000830152612091818461203e565b905092915050565b6000602082840312156120af576120ae611e24565b5b60006120bd84828501611ead565b91505092915050565b7f4e487b7100000000000000000000000000000000000000000000000000000000600052602160045260246000fd5b60028110612106576121056120c6565b5b50565b6000819050612117826120f5565b919050565b600061212782612109565b9050919050565b6121378161211c565b82525050565b6000602082019050612152600083018461212e565b92915050565b600080fd5b7f4e487b7100000000000000000000000000000000000000000000000000000000600052604160045260246000fd5b6121958261202d565b810181811067ffffffffffffffff821117156121b4576121b361215d565b5b80604052505050565b60006121c7611e1a565b90506121d3828261218c565b919050565b600067ffffffffffffffff8211156121f3576121f261215d565b5b602082029050602081019050919050565b600080fd5b600061221c612217846121d8565b6121bd565b9050808382526020820190506020840283018581111561223f5761223e612204565b5b835b8181101561226857806122548882611ead565b845260208401935050602081019050612241565b5050509392505050565b600082601f83011261228757612286612158565b5b8135612297848260208601612209565b91505092915050565b600080fd5b600067ffffffffffffffff8211156122c0576122bf61215d565b5b6122c98261202d565b9050602081019050919050565b82818337600083830152505050565b60006122f86122f3846122a5565b6121bd565b905082815260208101848484011115612314576123136122a0565b5b61231f8482856122d6565b509392505050565b600082601f83011261233c5761233b612158565b5b813561234c8482602086016122e5565b91505092915050565b600080600080600060a0868803121561237157612370611e24565b5b600061237f88828901611e77565b955050602061239088828901611e77565b945050604086013567ffffffffffffffff8111156123b1576123b0611e29565b5b6123bd88828901612272565b935050606086013567ffffffffffffffff8111156123de576123dd611e29565b5b6123ea88828901612272565b925050608086013567ffffffffffffffff81111561240b5761240a611e29565b5b61241788828901612327565b9150509295509295909350565b600067ffffffffffffffff82111561243f5761243e61215d565b5b602082029050602081019050919050565b600061246361245e84612424565b6121bd565b9050808382526020820190506020840283018581111561248657612485612204565b5b835b818110156124af578061249b8882611e77565b845260208401935050602081019050612488565b5050509392505050565b600082601f8301126124ce576124cd612158565b5b81356124de848260208601612450565b91505092915050565b600080604083850312156124fe576124fd611e24565b5b600083013567ffffffffffffffff81111561251c5761251b611e29565b5b612528858286016124b9565b925050602083013567ffffffffffffffff81111561254957612548611e29565b5b61255585828601612272565b9150509250929050565b600081519050919050565b600082825260208201905092915050565b6000819050602082019050919050565b61259481611e8c565b82525050565b60006125a6838361258b565b60208301905092915050565b6000602082019050919050565b60006125ca8261255f565b6125d4818561256a565b93506125df8361257b565b8060005b838110156126105781516125f7888261259a565b9750612602836125b2565b9250506001810190506125e3565b5085935050505092915050565b6000602082019050818103600083015261263781846125bf565b905092915050565b6002811061264c57600080fd5b50565b60008135905061265e8161263f565b92915050565b60008060006060848603121561267d5761267c611e24565b5b600061268b86828701611e77565b935050602061269c86828701611ead565b92505060406126ad8682870161264f565b9150509250925092565b6126c081611e4e565b82525050565b60006020820190506126db60008301846126b7565b92915050565b6126ea81611fb1565b81146126f557600080fd5b50565b600081359050612707816126e1565b92915050565b6000806040838503121561272457612723611e24565b5b600061273285828601611e77565b9250506020612743858286016126f8565b9150509250929050565b600067ffffffffffffffff8211156127685761276761215d565b5b6127718261202d565b9050602081019050919050565b600061279161278c8461274d565b6121bd565b9050828152602081018484840111156127ad576127ac6122a0565b5b6127b88482856122d6565b509392505050565b600082601f8301126127d5576127d4612158565b5b81356127e584826020860161277e565b91505092915050565b6000806040838503121561280557612804611e24565b5b60006128138582860161264f565b925050602083013567ffffffffffffffff81111561283457612833611e29565b5b612840858286016127c0565b9150509250929050565b6000602082840312156128605761285f611e24565b5b600061286e8482850161264f565b91505092915050565b60006040820190508181036000830152612891818561203e565b90506128a06020830184611fbd565b9392505050565b600080604083850312156128be576128bd611e24565b5b60006128cc85828601611e77565b92505060206128dd85828601611e77565b9150509250929050565b600080600080600060a0868803121561290357612902611e24565b5b600061291188828901611e77565b955050602061292288828901611e77565b945050604061293388828901611ead565b935050606061294488828901611ead565b925050608086013567ffffffffffffffff81111561296557612964611e29565b5b61297188828901612327565b9150509295509295909350565b60006020828403121561299457612993611e24565b5b60006129a284828501611e77565b91505092915050565b7f4e487b7100000000000000000000000000000000000000000000000000000000600052602260045260246000fd5b600060028204905060018216806129f257607f821691505b602082108103612a0557612a046129ab565b5b50919050565b7f4261736520555249206e6f742073657400000000000000000000000000000000600082015250565b6000612a41601083611ff2565b9150612a4c82612a0b565b602082019050919050565b60006020820190508181036000830152612a7081612a34565b9050919050565b600081905092915050565b6000612a8d82611fe7565b612a978185612a77565b9350612aa7818560208601612003565b80840191505092915050565b7f68696464656e2e6a736f6e000000000000000000000000000000000000000000600082015250565b6000612ae9600b83612a77565b9150612af482612ab3565b600b82019050919050565b6000612b0b8284612a82565b9150612b1682612adc565b915081905092915050565b7f2e6a736f6e000000000000000000000000000000000000000000000000000000600082015250565b6000612b57600583612a77565b9150612b6282612b21565b600582019050919050565b6000612b798285612a82565b9150612b858284612a82565b9150612b9082612b4a565b91508190509392505050565b6000604082019050612bb160008301856126b7565b612bbe60208301846126b7565b9392505050565b6000604082019050612bda6000830185611f02565b612be76020830184611f02565b9392505050565b7f4e487b7100000000000000000000000000000000000000000000000000000000600052603260045260246000fd5b7f496e76616c696420547970650000000000000000000000000000000000000000600082015250565b6000612c53600c83611ff2565b9150612c5e82612c1d565b602082019050919050565b60006020820190508181036000830152612c8281612c46565b9050919050565b7f4e487b7100000000000000000000000000000000000000000000000000000000600052601160045260246000fd5b6000612cc382611e8c565b91507fffffffffffffffffffffffffffffffffffffffffffffffffffffffffffffffff8203612cf557612cf4612c89565b5b600182019050919050565b60008190508160005260206000209050919050565b60006020601f8301049050919050565b600082821b905092915050565b600060088302612d627fffffffffffffffffffffffffffffffffffffffffffffffffffffffffffffffff82612d25565b612d6c8683612d25565b95508019841693508086168417925050509392505050565b6000819050919050565b6000612da9612da4612d9f84611e8c565b612d84565b611e8c565b9050919050565b6000819050919050565b612dc383612d8e565b612dd7612dcf82612db0565b848454612d32565b825550505050565b600090565b612dec612ddf565b612df7818484612dba565b505050565b5b81811015612e1b57612e10600082612de4565b600181019050612dfd565b5050565b601f821115612e6057612e3181612d00565b612e3a84612d15565b81016020851015612e49578190505b612e5d612e5585612d15565b830182612dfc565b50505b505050565b600082821c905092915050565b6000612e8360001984600802612e65565b1980831691505092915050565b6000612e9c8383612e72565b9150826002028217905092915050565b612eb582611fe7565b67ffffffffffffffff811115612ece57612ecd61215d565b5b612ed882546129da565b612ee3828285612e1f565b600060209050601f831160018114612f165760008415612f04578287015190505b612f0e8582612e90565b865550612f76565b601f198416612f2486612d00565b60005b82811015612f4c57848901518255600182019150602085019450602081019050612f27565b86831015612f695784890151612f65601f891682612e72565b8355505b6001600288020188555050505b505050505050565b7f4e487b7100000000000000000000000000000000000000000000000000000000600052601260045260246000fd5b6000608082019050612fc260008301876126b7565b612fcf6020830186611f02565b612fdc6040830185611f02565b612fe96060830184611f02565b95945050505050565b6000612ffd82611e8c565b915061300883611e8c565b92508282019050808211156130205761301f612c89565b5b92915050565b6000604082019050818103600083015261304081856125bf565b9050818103602083015261305481846125bf565b90509392505050565b600081519050919050565b600082825260208201905092915050565b60006130848261305d565b61308e8185613068565b935061309e818560208601612003565b6130a78161202d565b840191505092915050565b600060a0820190506130c760008301886126b7565b6130d460208301876126b7565b6130e16040830186611f02565b6130ee6060830185611f02565b81810360808301526131008184613079565b90509695505050505050565b60008151905061311b81611f58565b92915050565b60006020828403121561313757613136611e24565b5b60006131458482850161310c565b91505092915050565b600060a08201905061316360008301886126b7565b61317060208301876126b7565b818103604083015261318281866125bf565b9050818103606083015261319681856125bf565b905081810360808301526131aa8184613079565b9050969550505050505056fea2646970667358221220b9385e07697d94da89583be6a7ead53f7f0e20d4384d087f6029138f35e69f9164736f6c634300081c0033",
    "linkReferences": {},
    "deployedLinkReferences": {}
}